{
  "transactions": [
    {
      "hash": "0x57d3de83514c03b03518458ad9ad6bfbea67bb0fd70fab5e4e5ad554f90f6295",
      "transactionType": "CALL",
      "contractName": null,
      "contractAddress": "0x142a26e58d12edfa3e726f7c00bceff8bbe5a741",
      "function": "initialize(address)",
      "arguments": [
        "0x0b4537fefd706b04CF13d7BD4ac2EC5eF56b2077"
      ],
      "transaction": {
        "from": "0x33bad609fd656df90fb9da00058c59a54a5d7a6f",
        "to": "0x142a26e58d12edfa3e726f7c00bceff8bbe5a741",
        "gas": "0x108f2",
        "value": "0x0",
        "input": "0xc4d66de80000000000000000000000000b4537fefd706b04cf13d7bd4ac2ec5ef56b2077",
        "nonce": "0xb",
        "chainId": "0x38"
      },
      "additionalContracts": [],
      "isFixedGasLimit": false
    }
  ],
  "receipts": [
    {
      "status": "0x1",
      "cumulativeGasUsed": "0x58bb7b",
      "logs": [
        {
          "address": "0x142a26e58d12edfa3e726f7c00bceff8bbe5a741",
          "topics": [
            "0x8be0079c531659141344cd1fd0a4f28419497f9722a3daafe3b4186f6b6457e0",
            "0x0000000000000000000000000000000000000000000000000000000000000000",
            "0x0000000000000000000000000b4537fefd706b04cf13d7bd4ac2ec5ef56b2077"
          ],
          "data": "0x",
          "blockHash": "0xcdae5970445dca0c64e9ae2a49a7204b6b6a1c976baf66992aa0abdf9e19166f",
          "blockNumber": "0x45b7480",
          "blockTimestamp": "0x694fab8a",
          "transactionHash": "0x57d3de83514c03b03518458ad9ad6bfbea67bb0fd70fab5e4e5ad554f90f6295",
          "transactionIndex": "0x2c",
          "logIndex": "0x89",
          "removed": false
        }
      ],
      "logsBloom": "0x00000000000000000000000000000000000000000000000000800000000000000000000000000000000000000000000000000000080000000000000000000000000000000000000000000000000010000001000000000000000000080000000000800000020000000000000000000800000000000000000000000000000000400000000000000000000000000000000000000000000008000000000000000001000000000000000000000000000000000000000000000000000000000000000000000000000000000000000000000000000000000000000000000000000020000000000000000000000000000000000000000000000000000000000000000000",
      "type": "0x2",
      "transactionHash": "0x57d3de83514c03b03518458ad9ad6bfbea67bb0fd70fab5e4e5ad554f90f6295",
      "transactionIndex": "0x2c",
      "blockHash": "0xcdae5970445dca0c64e9ae2a49a7204b6b6a1c976baf66992aa0abdf9e19166f",
      "blockNumber": "0x45b7480",
      "gasUsed": "0xb529",
      "effectiveGasPrice": "0x2faf080",
      "from": "0x33bad609fd656df90fb9da00058c59a54a5d7a6f",
      "to": "0x142a26e58d12edfa3e726f7c00bceff8bbe5a741",
      "contractAddress": null
    }
  ],
  "libraries": [],
  "pending": [],
  "returns": {},
  "timestamp": 1766828941031,
  "chain": 56,
  "commit": "e7d32b7"
}