{
  "transactions": [
    {
      "hash": "0x9ace76e9eefbb3c23a22e6dc70ed6d56fe315d0850cfee73faf917f7d8627c18",
      "transactionType": "CALL",
      "contractName": null,
      "contractAddress": "0xdde9024cfc27a7fa43be2fafc483355c439286d9",
      "function": "initialize(address)",
      "arguments": [
        "0x0b4537fefd706b04CF13d7BD4ac2EC5eF56b2077"
      ],
      "transaction": {
        "from": "0x33bad609fd656df90fb9da00058c59a54a5d7a6f",
        "to": "0xdde9024cfc27a7fa43be2fafc483355c439286d9",
        "gas": "0x17083",
        "value": "0x0",
        "input": "0xc4d66de80000000000000000000000000b4537fefd706b04cf13d7bd4ac2ec5ef56b2077",
        "nonce": "0xd",
        "chainId": "0x38"
      },
      "additionalContracts": [],
      "isFixedGasLimit": false
    }
  ],
  "receipts": [
    {
      "status": "0x1",
      "cumulativeGasUsed": "0x1333d9f",
      "logs": [
        {
          "address": "0xdde9024cfc27a7fa43be2fafc483355c439286d9",
          "topics": [
            "0x8be0079c531659141344cd1fd0a4f28419497f9722a3daafe3b4186f6b6457e0",
            "0x0000000000000000000000000000000000000000000000000000000000000000",
            "0x0000000000000000000000000b4537fefd706b04cf13d7bd4ac2ec5ef56b2077"
          ],
          "data": "0x",
          "blockHash": "0xaa3feaab1835a376e8be8832e8b7b3015e20141c9a99b9a48c7872090c2fccc5",
          "blockNumber": "0x45b9810",
          "blockTimestamp": "0x694fc636",
          "transactionHash": "0x9ace76e9eefbb3c23a22e6dc70ed6d56fe315d0850cfee73faf917f7d8627c18",
          "transactionIndex": "0xa4",
          "logIndex": "0x239",
          "removed": false
        }
      ],
      "logsBloom": "0x00000000000000001000000000000000000000000000000000800000000000000000000000000000000000000000000000000000000000000000000000000000000000000000000000000000000010000001000000000000000000000000000000800000020000000000000000000800000000000000000000000000000000400000000000000000000000000000000000000000000008000000000000000000000000000000000000100000000000000000000000000000000000000000000000000000000000000000000000000000000000000000000020000000000020000000000000000000000000000000000000000000000000000000000000000000",
      "type": "0x2",
      "transactionHash": "0x9ace76e9eefbb3c23a22e6dc70ed6d56fe315d0850cfee73faf917f7d8627c18",
      "transactionIndex": "0xa4",
      "blockHash": "0xaa3feaab1835a376e8be8832e8b7b3015e20141c9a99b9a48c7872090c2fccc5",
      "blockNumber": "0x45b9810",
      "gasUsed": "0x10acd",
      "effectiveGasPrice": "0x2faf080",
      "from": "0x33bad609fd656df90fb9da00058c59a54a5d7a6f",
      "to": "0xdde9024cfc27a7fa43be2fafc483355c439286d9",
      "contractAddress": null
    }
  ],
  "libraries": [],
  "pending": [],
  "returns": {},
  "timestamp": 1766835768152,
  "chain": 56,
  "commit": "f876b4e"
}